:100000000A128A11AB2E00308A000408840A820783
:1000100000344C34593443344134203453344F3455
:100020004634543400346C347934633461342034CD
:0A00300073346F3466347434003406
:100D540053340A128A11AA260A128A11F70083014F
:100D64000A128A11912FF000831203131308BA2E6A
:100D74008C1DBD2EBE2EBA2E8C1170089300080057
:100D84008316031387150716A830831203139400E0
:100D9400803083160313910084309400093093004B
:100DA400080002300A128A1133270A128A112830E5
:100DB4000A128A1133270A128A110C300A128A1174
:100DC40033270A128A11080083160313111483129D
:100DD40003138C110330F2008A30F1005630F00016
:100DE400F00BF22EF10BF22EF20BF22EF92E08007C
:100DF400831603131115FE2E83128C1D022F032F4D
:100E0400FE2E8C110330F2008A30F1005630F000CF
:100E1400F00B0A2FF10B0A2FF20B0A2F112F0800E7
:100E2400F400252F740884000A128A1103200A1280
:100E34008A110A128A1162270A128A110130F300F8
:100E44007308F407252F740884000A128A110320FA
:100E54000A128A110038031D302F312F142F322F1C
:100E64000800F2007208F039831203138800081195
:100E740088152130F1007630F000F00B3F2FF10B94
:100E84003F2F64008312031388117208F0000330AB
:100E94000310F00DFF3E031D4A2F0310700DF039AF
:100EA4008800081188152130F1007630F000F00B2D
:100EB400592FF10B592F6400831203138811080072
:100EC400F2007208F039831203138800081588159C
:100ED4002130F1007630F000F00B6E2FF10B6E2F05
:100EE40064008312031388117208F00003300310A6
:100EF400F00DFF3E031D792F0310700DF0398800AB
:100F0400081588152130F1007630F000F00B882F99
:100F1400F10B882F640083120313881108008316D1
:100F2400031388018312031388010A128A11D3263A
:100F34000A128A110A128A11C2260A128A118030F0
:100F44000A128A1133270A128A1101300A128A11ED
:100F540012270A128A11AE2FC0300A128A113327BF
:100F64000A128A110B300A128A1112270A128A11E4
:100F74000A128A11E6260A128A1124300A128A11E8
:100F8400B5260A128A1183160313111BCA2FCB2FFD
:100F9400DE2F77080A128A11B5260A128A118312E3
:100FA400031393012130F6007630F500F50BD82FAA
:100FB400F60BD82F6400DE2F83160313111BE32FC7
:100FC400E42FAE2FE62FE62F83128C1DEA2FEB2F92
:100FD400E62F8C110A128A11FA260A128A1121307C
:100FE400F6007630F500F50BF52FF60BF52F6400BF
:0C0FF400AE2FAE2FAE2F0A128A1100287B
:02400E003A3F37
:00000001FF
