:100000000A128A11DB2E00308A000408840A820753
:1000100000344C34593443344134203453344F3455
:06002000463454340034A4
:100D88005334831603131114C92E83128C1DCD2ED0
:100D9800CE2EC92E8C110800831603131115D42EDC
:100DA80083128C1DD82ED92ED42E8C110800F70151
:100DB8000A128A11C4260A128A11F80083010A123B
:100DC8008A119B2F831203131308F0007008F10097
:100DD8008C1DEF2EF02EF32E7108F32EF32E080043
:100DE80002300A128A113D270A128A1128300A1283
:100DF8008A113D270A128A110C300A128A113D27DE
:100E08000A128A110800831603138715071626305D
:100E18008312031394008316031391018430940002
:100E2800243093000B178C158312031393010800C9
:100E3800F4002F2F740884000A128A1103200A1262
:100E48008A110A128A116C270A128A110130F300DA
:100E58007308F4072F2F740884000A128A110320DC
:100E68000A128A110038031D3A2F3B2F1E2F3C2FE0
:100E78000800F2007208F039831203138800081181
:100E880088152130F1007630F000F00B492FF10B76
:100E9800492F64008312031388117208F00003308D
:100EA8000310F00DFF3E031D542F0310700DF03991
:100EB8008800081188152130F1007630F000F00B19
:100EC800632FF10B632F640083120313881108004A
:100ED800F2007208F0398312031388000815881588
:100EE8002130F1007630F000F00B782FF10B782FDD
:100EF80064008312031388117208F0000330031092
:100F0800F00DFF3E031D832F0310700DF03988008C
:100F1800081588152130F1007630F000F00B922F7B
:100F2800F10B922F640083120313881108008316B3
:100F3800031388018312031388010A128A11F42605
:100F48000A128A110A128A1107270A128A11803096
:100F58000A128A113D270A128A1101300A128A11CF
:100F68001C270A128A11B82F0A128A11C5260A12DA
:100F78008A11831203138C11930183160313111B17
:100F8800C62FC72FB82F0A128A11E6260A128A110D
:100F9800F5007508F700C0300A128A113D270A12B9
:100FA8008A1177087806031DDA2FDB2FB82F770808
:100FB8000A128A116C270A128A11831203139301E9
:100FC80083160313911683120313141614170A12A7
:100FD8008A11D0260A128A112130F6007630F500DF
:100FE800F50BF42FF60BF42F6400B82FB82FB82F99
:080FF800B82F0A128A1100282B
:02400E003A3F37
:00000001FF
